:020000040800F2
:10000000000002206D4C0008591000085B10000829
:100010005D1000085F10000861100008000000007B
:10002000000000000000000000000000A1490008DE
:100030006310000800000000414A0008A54A0008BB
:10004000BD4C0008BD4C0008BD4C0008BD4C00086C
:10005000BD4C0008BD4C0008BD4C0008BD4C00085C
:10006000BD4C0008651000086F100008BD4C00086A
:10007000BD4C0008BD4C0008BD4C0008BD4C00083C
:10008000BD4C0008BD4C0008BD4C0008BD4C00082C
:1000900079100008BD4C0008BD4C0008891000080C
:1000A000BD4C0008BD4C0008BD4C0008BD4C00080C
:1000B000A1100008BD4C0008BD4C0008BD4C000854
:1000C000BD4C0008BD4C0008BD4C0008BD4C0008EC
:1000D000BD4C0008B1100008BD4C0008C11000085C
:1000E000BD4C0008BD4C0008BD4C0008BD4C0008CC
:1000F000BD4C0008BD4C0008BD4C0008BD4C0008BC
:10010000BD4C0008BD4C0008BD4C0008BD4C0008AB
:10011000BD4C0008BD4C0008BD4C0008BD4C00089B
:10012000BD4C0008D1100008BD4C0008BD4C0008B3
:10013000BD4C0008BD4C0008BD4C0008BD4C00087B
:10014000E1100008BD4C0008BD4C0008BD4C000883
:10015000F110000801110008111100082111000818
:10016000BD4C0008BD4C0008BD4C0008BD4C00084B
:10017000BD4C0008BD4C0008BD4C0008000000004C
:08018000BD4C0008BD4C000855
:10019000830730B547D0541E002A3ED0CAB203466A
:1001A00001E0013C39D303F8012B9D07F9D1032C61
:1001B0002CD9CDB205EB05250F2C05EB054535D91E
:1001C000A4F1100222F00F0C03F1100EE6444FEAE6
:1001D000121C1A46156055609560D5601032724544
:1001E000F8D10CF1010214F00C0F03EB021204F031
:1001F0000F0C13D0ACF1040323F0030304331344B6
:1002000042F8045B9A42FBD10CF003042CB1C9B252
:100210001C4403F8011B9C42FBD130BD64461346CD
:10022000002CF4D1F9E703461446C0E71A46A44669
:10023000E0E700BF70B50F4B0F4DAB42A3EB0506D7
:1002400007D0B610002455F8043B01349847A64265
:10025000F9D804F085FE094D094B5E1BAB424FEA0D
:10026000A60606D0002455F8043B01349847A64260
:10027000F9D870BD5450000854500008545000087C
:1002800058500008844641EA000313F003036DD17F
:10029000403A41D351F8043B40F8043B51F8043B49
:1002A00040F8043B51F8043B40F8043B51F8043B50
:1002B00040F8043B51F8043B40F8043B51F8043B40
:1002C00040F8043B51F8043B40F8043B51F8043B30
:1002D00040F8043B51F8043B40F8043B51F8043B20
:1002E00040F8043B51F8043B40F8043B51F8043B10
:1002F00040F8043B51F8043B40F8043B51F8043B00
:1003000040F8043B51F8043B40F8043B51F8043BEF
:1003100040F8043B403ABDD2303211D351F8043B8F
:1003200040F8043B51F8043B40F8043B51F8043BCF
:1003300040F8043B51F8043B40F8043B103AEDD23E
:100340000C3205D351F8043B40F8043B043AF9D28F
:10035000043208D0D2071CBF11F8013B00F8013B62
:1003600001D30B8803806046704700BF082A13D36F
:100370008B078DD010F003038AD0C3F10403D21A87
:10038000DB071CBF11F8013B00F8013B80D331F8BB
:10039000023B20F8023B7BE7043AD9D3013A11F83B
:1003A000013B00F8013BF9D20B7803704B784370A6
:1003B0008B7883706046704753B94AB9002908BFEB
:1003C00000281CBF4FF0FF314FF0FF3000F00CB899
:1003D000ADF1080C6DE904CE04F071FCDDF804E029
:1003E000DDE9022304B07047704700BF10B5054C2B
:1003F000237833B9044B13B10448AFF300800123D1
:10040000237010BD1000002000000000604F0008A5
:1004100008B5034B1BB103490348AFF3008008BD87
:100420000000000014000020604F000808B50368B9
:10043000B3F1804F00D008BD01F0B4FFFBE772B606
:10044000FEE7000000B595B03022002108A8FFF7B4
:100450009FFE002303930493059306930793019350
:10046000204A116C41F080511164126C02F08052EC
:100470000192019A02931C4B1A6842F480421A605E
:100480001B6803F480430293029B012308934FF4FB
:100490008033099302230E934FF480020F920622B9
:1004A0001092A822119212930723139308A801F027
:1004B0008BF898B90F230393022304930023059329
:1004C0004FF4A05306934FF480530793052103A8DC
:1004D00001F0CAFA20B915B05DF804FBFFF7AFFFD1
:1004E000FFF7ADFF003802400070004008B501F092
:1004F0003FFFFFF7A7FF00F015F800F05FFA00F0EC
:1005000089F900F0A9F900F0ADFA00F005FC00F05F
:10051000ADFB00F0E5FB00F01DFC00F025F904F058
:1005200082F8FEE72DE9F0478EB0002409940A9482
:100530000B940C940D9401946F4B1A6B42F00202D1
:100540001A631A6B02F002020192019A02941A6B6A
:1005500042F040021A631A6B02F040020292029AC1
:1005600003941A6B42F001021A631A6B02F0010243
:100570000392039A04941A6B42F008021A631A6BEE
:1005800002F008020492049A05941A6B42F00402E5
:100590001A631A6B02F004020592059A06941A6B0C
:1005A00042F480721A631A6B02F480720692069A01
:1005B00007941A6B42F080021A631A6B02F08002F1
:1005C0000792079A08941A6B42F020021A631B6B79
:1005D00003F020030893089B484F22464FF4807194
:1005E000384601F02BFCDFF82091012240214846DB
:1005F00001F024FCDFF8148101221021404601F0B3
:100600001DFC3F4E012241F20101304601F016FC73
:10061000C02309934FF488130A930B9409A939480E
:1006200001F016FB4FF48073099301250A950B9492
:100630000C9409A9384601F00BFB402309930A9555
:100640000B950C9509A9484601F002FB0823099374
:100650004FF4041ACDF828A00B9509A9484601F0DB
:10066000F7FA09950A940B9509A9404601F0F0FAAA
:10067000102309930A950B954FF00209CDF830909D
:1006800009A9404601F0E4FA30230993CDF828A0E7
:100690000B9509A9384601F0DBFA4FF48053099312
:1006A0000A950B950C9509A9304601F0D1FA0995E8
:1006B0000A950B95CDF8309009A9304601F0C8FA9B
:1006C00022460521092001F03FFE092001F04CFEE1
:1006D000224605210A2001F037FE0A2001F044FEDF
:1006E00022460521172001F02FFE172001F03CFEC5
:1006F0000EB0BDE8F08700BF00380240000802409D
:1007000000040240002002400018024000000240A5
:1007100008B5012003F0BFFFFBE708B5012003F097
:10072000BAFFFBE708B5012003F0B5FFFBE708B50A
:10073000012003F0B0FFFBE7034B0360034B0B60AA
:1007400080231360704700BF8006002080040020D3
:10075000034B0360034B0B604FF4807313607047CF
:100760002C0400202C00002010B59CB0244C0DF16E
:10077000540CA646BEE80F00ACE80F009EE8070048
:100780008CE80700002115A803F052FF1D4B1860EC
:100790000DF1380C04F11C0EBEE80F00ACE80F00A0
:1007A0009EE807008CE8070000210EA803F040FF38
:1007B000154B18600DF11C0C04F1380EBEE80F004B
:1007C000ACE80F009EE807008CE80700002107A8AE
:1007D00003F02EFF0D4B1860EE4604F1540CBCE8FC
:1007E0000F00AEE80F009CE807008EE8070000212C
:1007F000684603F01DFF064B18601CB010BD00BF1B
:10080000784F0008E0060020DC060020D806002013
:10081000D406002008B50E480E4B03600323436046
:1008200000238360C3604FF4102202614FF4001272
:1008300042610376012242768376C376037743775B
:1008400000F0EAFC00B908BDFFF7F9FDFBE700BFC7
:10085000100700200064004008B50E480E4B0360EE
:100860000323436000238360C3604FF410220261BE
:100870004FF4001242610376012242768376C376FA
:100880000377437700F0C8FC00B908BDFFF7D7FD38
:10089000FBE700BFE80600200068004010B58AB002
:1008A00000230593069307930893099303683D4A31
:1008B000934204D03C4A934234D00AB010BD3B4A24
:1008C000136801331360012B1FD000240194384BAF
:1008D0001A6B42F008021A631B6B03F008030193C2
:1008E000019B03230593022206920893092309938F
:1008F00005A9304801F0ACF922460621142001F088
:1009000023FD142001F030FDD7E700230093284B8E
:100910001A6C42F000721A641B6C03F000730093AF
:10092000009BD2E700230293214B1A6C42F08062B5
:100930001A641B6C03F080630293029B1B4A1368CA
:1009400001331360012B20D000240494184B1A6B40
:1009500042F002021A631B6B03F002030493049B30
:100960006023059302230693032308930923099325
:1009700005A9114801F06CF922460621402001F03A
:10098000E3FC402001F0F0FC97E700230393084BC1
:100990001A6C42F000721A641B6C03F0007303932C
:1009A000039BD1E70064004000680040E40600209B
:1009B00000380240000C02400004024010B582B032
:1009C00000240094264B1A6B42F480021A631A6BBF
:1009D00002F480020092009A01941A6B42F4001211
:1009E0001A631B6B03F400130193019B224605213C
:1009F0000C2001F0A9FC0C2001F0B6FC22460521D8
:100A0000392001F0A1FC392001F0AEFC224605217D
:100A10003A2001F099FC3A2001F0A6FC224605217B
:100A20003B2001F091FC3B2001F09EFC2246052179
:100A3000442001F089FC442001F096FC2246052167
:100A4000452001F081FC452001F08EFC2246052165
:100A5000462001F079FC462001F086FC02B010BD72
:100A60000038024008B50F480F4B03604FF4827303
:100A7000436000238360C36002220261012242615D
:100A80004FF4007282611022C2610362436283628A
:100A90000A23C36201F098FC00B908BDFFF7CFFC40
:100AA000FBE700BFF8070020003001402DE9F043CC
:100AB00089B0002303930493059306930793026878
:100AC0003F4B9A4202D009B0BDE8F08304460025AE
:100AD000009503F584335A6C42F480525A645A6C80
:100AE00002F480520092009A01951A6B42F00202C1
:100AF0001A631A6B02F002020192019A02951A6BB4
:100B000042F001021A631B6B03F001030293029B84
:100B1000182303934FF00209CDF810904FF001080D
:100B2000CDF81480032706970526079603A92548C4
:100B300001F08EF880230393CDF81090CDF8148047
:100B40000697079603A9204801F082F81F48204B1A
:100B500003604FF0C06343608560C5604FF48063FD
:100B6000036145618561C5614FF4403303624562AD
:100B700001F0E4F9E8B9154BE3649C631548164BA2
:100B800003604FF0C0634360402383600023C36071
:100B90004FF48062026143618361C3614FF40032AC
:100BA0000262436201F0CAF930B90A4BA3649C6344
:100BB00089E7FFF744FCDEE7FFF741FCF5E700BFFC
:100BC000003001400004024000000240980700206D
:100BD0004064024038070020586402400268094B14
:100BE0009A4200D0704782B000230193064B5A6CA2
:100BF00042F400325A645B6C03F400330193019BAE
:100C000002B07047004401400038024000B587B090
:100C10000023019302930393049305930268104BFE
:100C20009A4202D007B05DF804FB002300930D4BFD
:100C30001A6B42F020021A631B6B03F0200300932F
:100C4000009B402301930223029301220392049309
:100C50000323059301A9044800F0FAFFE2E700BF6F
:100C600000440140003802400014024000B589B041
:100C70000023019302930393049305930693079330
:100C80001548164A026053224260836040F2CF72D8
:100C9000C2600361836101F0F3FDA0B90E4801F069
:100CA0001BFE98B9602301930022029203920592E1
:100CB00001A9094801F074FE58B90748FFF7A6FFDB
:100CC00009B05DF804FBFFF7BAFBE7E7FFF7B7FBF6
:100CD000E8E7FFF7B4FBF0E75008002000440140CC
:100CE00008B50A480A4B03600A4B4360002383603F
:100CF000C36003610C2242618361C36101F0A6FFFE
:100D000000B908BDFFF79BFBFBE700BF080B002005
:100D100000100140003E490008B50B480B4B036032
:100D20000B4B436000238360C3604FF48062026119
:100D30000C2242618361C36101F088FF00B908BDE4
:100D4000FFF77DFBFBE700BFC00A00200048004022
:100D5000A086010008B50A480A4B03600A4B4360AD
:100D600000238360C36003610C2242618361C3611D
:100D700001F06CFF00B908BDFFF761FBFBE700BFA6
:100D8000780A002000140140003E49002DE9F0419E
:100D90008CB0044600230793089309930A930B939E
:100DA00003689B4A93420AD09A4A934200F0828099
:100DB000994A934200F0C7800CB0BDE8F08100254D
:100DC0000095964B5A6C42F010025A645A6C02F02D
:100DD00010020092009A01951A6B42F002021A6307
:100DE0001A6B02F002020192019A02951A6B42F00C
:100DF00001021A631B6B03F001030293029B802321
:100E000007934FF00208CDF8208003270A970726A2
:100E10000B9607A9824800F01BFF4FF4007307935D
:100E2000CDF8208009950A970B9607A97D4800F018
:100E30000FFF7D487D4B03604FF00063436040230C
:100E40008360C5604FF48063036145618561C5615E
:100E50004FF480330362456201F070F820BB724B9F
:100E6000A3639C637248734B03604FF0006343605D
:100E700000238360C3604FF4806202614361836139
:100E80004FF48072C2610362436201F057F870B997
:100E9000674BE3639C6300220521252001F054FA8F
:100EA000252001F061FA87E7FFF7C9FAD7E7FFF7D6
:100EB000C6FAEDE700250395584B1A6C42F48022E0
:100EC0001A641A6C02F480220392039A04951A6B36
:100ED00042F004021A631B6B03F004030493049BA7
:100EE0004FF4406307930223089303230A930723D5
:100EF0000B9307A9504800F0ABFE5048504B0360DD
:100F00004FF0006343608560C5604FF48063036108
:100F1000456185614FF48073C3614FF40033036210
:100F2000456201F00BF858B9444BE3639C6300221F
:100F30000421272001F008FA272001F015FA3BE7E9
:100F4000FFF77DFAF0E700250595344B5A6C42F027
:100F500020025A645A6C02F020020592059A069506
:100F60001A6B42F040021A631B6B03F040030693B6
:100F7000069B4FF4844307930223089303230A93A9
:100F800008230B9307A92F4800F062FE2E482F4B31
:100F900003604FF02063436040238360C5604FF4DB
:100FA0008063036145618561C5614FF480330362ED
:100FB000456200F0C3FF20BB234BA3639C6324481E
:100FC000244B03604FF02063436000238360C360C1
:100FD0004FF480620261436183614FF48072C261A9
:100FE0000362436200F0AAFF70B9194BE3639C638C
:100FF00000220521472001F0A7F9472001F0B4F9AC
:10100000DAE6FFF71CFAD7E7FFF719FAEDE700BFBA
:101010000010014000480040001401400038024028
:101020000004024000000240180A0020B864024098
:10103000B8090020886402400008024058090020D6
:101040002860024000180240F8080020A064024016
:101050009808002028640240FEE7FEE7FEE7FEE76E
:10106000FEE7704708B5082000F0F0FE08BD08B59F
:10107000102000F0EBFE08BD08B5024800F07FF933
:1010800008BD00BF1007002008B5202000F0DEFEDC
:10109000402000F0DBFE802000F0D8FE08BD0000FC
:1010A00008B5024801F0D1FA08BD00BF500B00207E
:1010B00008B5024801F086FE08BD00BF080B0020FD
:1010C00008B5024801F07EFE08BD00BFC00A00203E
:1010D00008B5024800F0F6FF08BD00BF98080020E0
:1010E00008B5024800F04BF908BD00BFE806002033
:1010F00008B5024800F0E6FF08BD00BFB8090020AF
:1011000008B5024800F0DEFF08BD00BFF808002067
:1011100008B5024800F0D6FF08BD00BF180A00203D
:1011200008B5024801F04EFE08BD00BF780A002055
:1011300000B583B0002200920D4B596C41F4804100
:101140005964596C01F48041009100990192196C25
:1011500041F0805119641B6C03F080530193019B93
:101160000F216FF0010001F0EFF803B05DF804FB10
:101170000038024030B589B0044600230193224B69
:101180001A6C42F001021A641B6C03F00103019314
:10119000019B02A903A800F03DFD069BD3B900F016
:1011A00019FD0346194AA2FB03239B0C013B184877
:1011B0004FF08042026040F2E732C2604360002399
:1011C00003618360836101F05BFB054630B1284613
:1011D00009B030BD00F0FEFC4300E3E70C4801F02D
:1011E000EBF905460028F2D11C2001F0BDF80F2CC8
:1011F00001D90125EBE7002221461C2001F0A4F8CB
:10120000044B1C60E3E700BF0038024083DE1B4351
:10121000500B002004000020002800F0A18038B509
:10122000044690F82030D3B12268136843F00103DC
:10123000136001F0C3F8054623685A6812F0010FE5
:1012400010D101F0BBF8401B0A28F5D9636A43F4BA
:1012500000336362052384F82030012038BDFFF796
:101260001DFBE1E71A6822F002021A6001F0A6F8FD
:10127000054623685A6812F0020F0DD001F09EF85F
:10128000401B0A28F5D9636A43F4003363620523DF
:1012900084F820300120E1E7227E012A3DD01A683F
:1012A00022F080021A60637E012B3BD02268136813
:1012B00023F040031360A37E012B39D0226813680A
:1012C00023F020031360E37E012B37D022681368DC
:1012D00043F010031360237F012B35D0226813687D
:1012E00023F008031360637F012B33D02268136857
:1012F00023F004031360A368E268134322691343D5
:10130000626913436268013A21681343CB6100208C
:101310006062012384F82030A0E71A6842F080025E
:101320001A60C0E72268136843F040031360C2E705
:101330002268136843F020031360C4E7226813682F
:1013400023F010031360C6E72268136843F0080314
:101350001360C8E72268136843F004031360CAE708
:10136000012070477047704770477047704770475B
:1013700070477047704770477047704770472DE956
:10138000F84F054603685C69D3F804809F68D3F87A
:101390000CB0D3F810A0D3F8189014F001063BD08D
:1013A00017F0010616D001229A6017F0020F08D13B
:1013B00017F0040F0CD117F0080606D04FF4805632
:1013C00008E0FFF7CFFF002604E0FFF7CEFF01E0C3
:1013D0004FF4006617F4807F0DD02B684FF48072B5
:1013E0009A6017F4007F40F0868017F4806F00F059
:1013F000868046F4005617F4803F0DD02B684FF4DA
:1014000080329A6017F4003F40F0838017F4802FF9
:1014100000F0838046F4004614F0080F07D01BF05C
:10142000100F04D046F400762B681022DA6014F016
:10143000040F02D01BF0080F79D114F0020F04D072
:101440002B68DB6813F0030F78D114F0400F07D03E
:101450001AF0100F04D046F480662B6810221A612F
:1014600014F0200F02D01AF0080F6BD114F0100FF7
:1014700004D02B681B6913F0030F6AD114F4003FEA
:1014800002D018F0100F68D114F4803F02D018F089
:10149000080F69D114F4004F7AD018F0040F74D0FB
:1014A00014F4807F04D019F0010F01D046F001063A
:1014B00014F4007F04D019F0020F01D046F00206A8
:1014C00014F4806F04D019F0040F01D046F0040624
:1014D00014F4006F59D019F0700956D0B9F1400FCB
:1014E00065D058D8B9F1200F5ED0B9F1300F42D194
:1014F00046F0200644E02846FFF735FF7BE717F467
:10150000006F02D046F4804675E72846FFF72EFFAD
:1015100071E72846FFF728FF7EE717F4002F02D077
:1015200046F4803678E72846FFF721FF74E72B68FA
:101530000822DA602846FFF71CFF7EE72846FFF7FF
:1015400017FF82E72B6808221A612846FFF713FF6E
:101550008CE72846FFF70EFF90E72B6810225A60B1
:101560002846FFF709FF8FE72B6808225A602846B4
:10157000FFF703FF8EE7B9F1100F01D146F008061F
:101580002A68936923F0700393612B6804225A60E0
:101590009EB9BDE8F88FB9F1500F0BD0B9F1600FCB
:1015A000EED146F48076EBE746F01006E8E746F029
:1015B0004006E5E746F08006E2E76B6A33436B627C
:1015C0002846FFF7DBFEE4E7002800F0E08170B575
:1015D00082B00446036813F0010F3BD09F4B9B6819
:1015E00003F00C03042B2CD09C4B9B6803F00C03E2
:1015F000082B21D06368B3F5803F4FD0B3F5A02FFF
:1016000052D0964B1A6822F480321A601A6822F47B
:1016100080221A606368002B50D000F0CFFE054690
:101620008E4B1B6813F4003F14D100F0C7FE401B23
:101630006428F5D90320B1E1884B5B6813F4800F6F
:10164000D8D0864B1B6813F4003F03D06368002B8F
:1016500000F09F81236813F0020F54D07F4B9B68EA
:1016600013F00C0F3ED07D4B9B6803F00C03082B4E
:1016700033D0E368002B68D0794B01221A6000F068
:101680009DFE0546754B1B6813F0020F54D100F008
:1016900095FE401B0228F5D903207FE16F4A1368AD
:1016A00043F480331360B5E76C4B1A6842F4802230
:1016B0001A601A6842F480321A60ABE700F07EFECE
:1016C0000546664B1B6813F4003FC3D000F076FE5E
:1016D000401B6428F5D9032060E1604B5B6813F47C
:1016E000800FC6D15D4B1B6813F0020F03D0E36877
:1016F000012B40F05081594A136823F0F803216907
:1017000043EAC1031360236813F0080F42D06369F2
:101710006BB3534B0122C3F8802E00F04FFE0546F9
:101720004E4B5B6F13F0020F34D100F047FE401BAD
:101730000228F5D9032031E1484A136823F0F80361
:10174000216943EAC1031360DDE7454B00221A60BB
:1017500000F034FE0546414B1B6813F0020FD2D057
:1017600000F02CFE401B0228F5D9032016E13C4B6B
:101770000022C3F8802E00F021FE0546374B5B6F38
:1017800013F0020F06D000F019FE401B0228F5D915
:10179000032003E1236813F0040F77D02F4B1B6C59
:1017A00013F0805F33D1002301932C4B1A6C42F06D
:1017B00080521A641B6C03F080530193019B012536
:1017C000284B1B6813F4807F23D0A368012B34D0EF
:1017D000052B38D0214B1A6F22F001021A671A6FBD
:1017E00022F004021A67A368002B3DD000F0E6FD4A
:1017F00006461A4B1B6F13F0020F46D100F0DEFDB8
:10180000801B41F288339842F3D90320C6E00025BB
:10181000D6E7144A136843F48073136000F0CEFDDA
:101820000646104B1B6813F4807FCED100F0C6FD36
:10183000801B0228F5D90320B0E0084A136F43F05B
:1018400001031367CFE7054B1A6F42F004021A67D2
:101850001A6F42F001021A67C5E700BF0038024064
:10186000000047420070004000F0A8FD0646524BC1
:101870001B6F13F0020F08D000F0A0FD801B41F297
:1018800088339842F3D9032088E0EDB9A369002B8F
:1018900000F08380484A926802F00C02082A51D076
:1018A000022B17D0454B00221A6600F087FD044634
:1018B000414B1B6813F0007F42D000F07FFD001BFE
:1018C0000228F5D9032069E03B4A136C23F08053CA
:1018D0001364DBE7394B00221A6600F06FFD054602
:1018E000354B1B6813F0007F06D000F067FD401BEE
:1018F0000228F5D9032051E0E369226A1343626AA2
:1019000043EA8213A26A5208013A43EA0243E26AB6
:1019100043EA0263284A5360284B01221A6600F00A
:101920004DFD0446244B1B6813F0007F06D100F0E8
:1019300045FD001B0228F5D903202FE000202DE0F3
:1019400000202BE0012B2BD01B4B5B6803F48001A4
:10195000E269914226D103F03F02216A8A4223D1F3
:10196000616A47F6C0721A40B2EB811F1ED103F4C0
:101970004031A26A5208013AB1EB024F18D103F08C
:101980007063E26AB3EB026F14D1002006E001201D
:101990007047012002E0012000E0002002B070BD8D
:1019A0000120FBE70120F9E70120F7E70120F5E737
:1019B0000120F3E70120F1E7003802400000474230
:1019C00008B5264B9B6803F00C03042B41D0082B71
:1019D00041D1224B5A6802F03F025B6813F4800F3A
:1019E00012D01E4B5968C1F388111D480023A1FB7A
:1019F0000001FEF7E1FC194B5B68C3F301430133BF
:101A00005B00B0FBF3F027E0144B5868C0F388107C
:101A10004FEA401CBCEB000C6EEB0E0E4FEA8E132F
:101A200043EA9C634FEA8C11B1EB0C0163EB0E03AC
:101A3000DB0043EA5173C90011EB000C43F10003D2
:101A4000990200234FEA8C2041EA9C51FEF7B4FC36
:101A5000D1E7034800E0034808BD00BF003802405A
:101A6000001BB7000024F400002800F09B8070B534
:101A70000D4604464F4B1B6803F007038B4208D208
:101A8000CBB24C4A1370136803F007038B4240F04B
:101A90008B80236813F0020F17D013F0040F04D0CB
:101AA000454A936843F4E0539360236813F0080FAA
:101AB00004D0414A936843F4604393603E4A93687C
:101AC00023F0F003A1680B439360236813F0010F28
:101AD00032D06368012B21D09A1E012A25D9364ABB
:101AE000126812F0020F61D033498A6822F00302B3
:101AF00013438B6000F062FC06462F4B9B6803F09B
:101B00000C036268B3EB820F16D000F057FC801B09
:101B100041F288339842F0D9032042E0264A126805
:101B200012F4003FE0D101203BE0234A126812F09A
:101B3000007FD9D1012034E01E4B1B6803F007035E
:101B4000AB4207D9EAB21B4B1A701B6803F00703BC
:101B5000AB422DD1236813F0040F06D0164A9368C8
:101B600023F4E053E1680B439360236813F0080FFC
:101B700007D0114A936823F46043216943EAC10303
:101B80009360FFF71DFF0C4B9B68C3F303130B4AD5
:101B9000D35CD8400A4B18600A4B1868FFF7EAFA82
:101BA000002070BD012070470120FAE70120F8E70E
:101BB0000120F6E7003C0240003802403C5000089B
:101BC0000800002004000020014B1868704700BF87
:101BD0000800002008B5FFF7F7FF044B9B68C3F32C
:101BE0008223034AD35CD84008BD00BF00380240BE
:101BF0003450000808B5FFF7E7FF044B9B68C3F3B8
:101C00004233034AD35CD84008BD00BF00380240CD
:101C1000345000080F2303600B4B9A6802F0030254
:101C200042609A6802F0F00282609A6802F4E05220
:101C3000C2609B68DB0803F4E0530361034B1B683D
:101C400003F007030B60704700380240003C02407D
:101C500000230F2B00F2E98070B582B065E0856843
:101C60004FEA430E032404FA0EF425EA0405CC6877
:101C700004FA0EF42C438460446824EA02044A689F
:101C8000C2F300129A40224342605CE0DC08083450
:101C900050F8242003F00705AD004FF00F0E0EFAA8
:101CA00005FE22EA0E0E0A69AA4042EA0E0240F838
:101CB00024205CE0072200E0002202FA0EF22A4310
:101CC00002345A4D45F82420594A94686FEA0C02B0
:101CD00024EA0C054E6816F4801F01D04CEA040576
:101CE000534CA560E46802EA04054E6816F4001F30
:101CF00001D04CEA04054E4CE560646802EA040534
:101D00004E6816F4003F01D04CEA0405484C65606B
:101D1000246822404D6815F4803F01D04CEA04024B
:101D2000434C226001330F2B7DD801229A400C686E
:101D300004EA020C32EA0404F4D14C6804F003040F
:101D4000013C012C8BD94A6802F00302032A09D016
:101D5000C4685D000322AA4024EA02048A68AA40FB
:101D60002243C2604A6802F00302022A8ED004684D
:101D70004FEA430E032202FA0EF224EA02044A68F2
:101D800002F0030202FA0EF2224302604A6812F4E1
:101D9000403FC7D000220192264A546C44F480444C
:101DA0005464526C02F480420192019A9C08A51C72
:101DB0001E4A52F8255003F0030E4FEA8E0E0F22F2
:101DC00002FA0EF225EA02051B4A90423FF474AF74
:101DD00002F5806290421AD002F58062904218D0DB
:101DE00002F58062904216D002F58062904214D0D3
:101DF00002F58062904212D002F58062904210D0CB
:101E000002F5806290423FF455AF082255E7012267
:101E100053E7022251E703224FE704224DE7052250
:101E20004BE7062249E702B070BD70470038014019
:101E3000003C014000380240000002400AB18161CC
:101E400070470904816170477047000008B5054B71
:101E50005B69034200D108BD024B5861FFF7F4FFF4
:101E6000F9E700BF003C014010B40368D9B2103953
:101E70000C4AA2FB014212090B4CA25CC2655F290D
:101E800009D923F47F7323F0030304338365806D42
:101E90005DF8044B704723F47F7323F003038365DD
:101EA000F5E700BFABAAAAAA2C500008836A826992
:101EB00092B9012B0AD0022B02D00BB1002070473F
:101EC000C36A13F0807F28D100207047C36AB3F142
:101ED000C07F24D000207047B2F5005F09D0022BEC
:101EE00025D9032B25D1C36A13F0807F23D100208D
:101EF0007047032B03D8DFE803F01404140A002012
:101F00007047C36A13F0807F0DD100207047C36A09
:101F1000B3F1C07F09D00020704701207047012035
:101F20007047012070470120704701207047012051
:101F300070470020704701207047000070B50446CC
:101F400000F03CFA002C5BD00546022384F83530C3
:101F5000002384F834302268136823F001031360EF
:101F600023681A6812F0010F0AD000F027FA431B09
:101F7000052BF5D920236365032084F8350070BD57
:101F80001A68204911406268A0680243E068024371
:101F90002069024360690243A0690243E069024389
:101FA000206A02430A43616A04291ED01A60266827
:101FB000756925F00705636A1D43042B07D1A36AE1
:101FC0001D43E36A1BB12046FFF770FF90B97561AE
:101FD0002046FFF749FFE26D3F23934083600020D6
:101FE0006065012384F83530C9E7E16A206B01435D
:101FF0000A43DBE740236365012084F83500BEE730
:102000000120BCE73F8010F070B50446866D00F0FB
:10201000D5F994F83530DBB2022B06D08023636506
:10202000002384F83430012070BD0546226813680F
:1020300023F0160313602268536923F08003536171
:10204000236CE3B12268136823F00803136022684D
:10205000136823F00103136023681B6813F0010F5A
:1020600011D000F0ABF9431B052BF5D92023636594
:10207000032084F83500002384F83430D4E7A36CBF
:10208000002BDFD1E3E7E26D3F239340B3600123F0
:1020900084F83530002084F83400C5E790F83530F6
:1020A000DBB2022B03D08023436501207047052358
:1020B00080F835300268136823F0010313600020B4
:1020C00070470000F0B583B0044600230193724BC3
:1020D0001D68724BA3FB0535AD0A876D3E68C26D66
:1020E00008239340334210D003681A6812F0040F9B
:1020F0000BD01A6822F004021A60C26D08239340C4
:10210000BB60436D43F001034365E26D01239340DF
:10211000334209D02268526912F0800F04D0BB60AC
:10212000636D43F002036365E26D04239340334221
:1021300009D02268126812F0020F04D0BB60636DF0
:1021400043F004036365E26D10239340334224D0CF
:102150002268126812F0080F1FD0BB6023681A684B
:1021600012F4802F0DD01B6813F4002F04D1236CC0
:102170009BB12046984710E0A36C73B12046984766
:102180000BE01A6812F4807F03D11A6822F008026B
:102190001A60236C0BB120469847E26D20239340D0
:1021A000334255D02268126812F0100F50D0BB6035
:1021B00094F83530DBB2052B0ED023681A6812F480
:1021C000802F33D01B6813F4002F2AD1636C002BAF
:1021D0003ED0204698473BE02268136823F0160360
:1021E00013602268536923F080035361236CA3B109
:1021F0002268136823F008031360E26D3F239340C5
:10220000BB60012384F83530002384F83430236D1B
:10221000002B3FD0204698473CE0A36C002BE7D131
:10222000EBE7E36BA3B12046984711E01A6812F47C
:10223000807F09D11A6822F010021A60012384F805
:102240003530002384F83430E36B0BB120469847D7
:10225000636DFBB1636D13F0010F17D0052384F894
:1022600035302268136823F001031360019B0133AA
:102270000193AB4204D823681B6813F0010FF5D11A
:10228000012384F83530002384F83430E36C0BB13B
:102290002046984703B0F0BD08000020B5814E1BD2
:1022A000002807DB00F01F02400901239340024A87
:1022B00042F82030704700BF00E100E0002808DB52
:1022C0000901C9B200F1604000F5614080F80013D7
:1022D000704700F00F000901C9B2014B1954704753
:1022E00014ED00E000B500F00700C0F1070CBCF1F0
:1022F000040F28BF4FF0040C031D062B0FD9C31E7B
:102300004FF0FF3E0EFA0CF021EA000199400EFA60
:1023100003FE22EA0E0241EA02005DF804FB0023FC
:10232000EEE70000074AD36823F4E0631B041B0CAC
:10233000000200F4E060034343F0BF6343F4003362
:10234000D360704700ED00E010B50446054BD86837
:10235000C0F30220FFF7C6FF01462046FFF7AEFF9D
:1023600010BD00BF00ED00E008B5FFF799FF08BD04
:1023700008B50B4B1A6842F400721A601A6842F4EE
:1023800080621A601A6842F480721A600320FFF7B4
:10239000C9FF0020FEF7EEFEFEF7CAFE002008BDD2
:1023A000003C0240034A1168034B1B780B44136046
:1023B000704700BF980B002000000020014B1868F8
:1023C000704700BF980B002000285AD010B5044673
:1023D000436A33B94368B3F5827F05D00023C361F4
:1023E00002E00023036143610023A36294F85130AB
:1023F000002B40D0022384F851302268136823F068
:1024000040031360636803F48273A26802F4044219
:102410001343E26802F400621343226902F00202ED
:102420001343626902F001021343A26902F40072CD
:102430001343E26902F038021343226A02F0800279
:102440001343A26A02F40052216813430B60638BAA
:1024500003F00403626A02F01002216813434B6028
:102460002268D36923F40063D361002060650123EF
:1024700084F8513010BD84F850302046FEF716FB2A
:10248000B8E701207047000030B4036A026A22F006
:10249000010202624268846924F0730C0C6844EA09
:1024A0000C0423F0020C8B6843EA0C03114DA84284
:1024B00003D005F58065A84205D123F00803CD6857
:1024C0002B4323F004030B4DA84203D005F5806590
:1024D000A84207D122F440724D6945EA020C8A698C
:1024E00042EA0C02426084614A684263036230BC83
:1024F000704700BF0000014030B4036A026A22F452
:10250000807202624268C46924F0730C0C6844EA69
:102510000C0523F400738C6843EA0423114CA04299
:1025200003D004F58064A04206D123F40063CC6894
:1025300043EA042323F480630A4CA04203D004F549
:102540008064A04207D122F440524C6942EA04124E
:102550008C6942EA04124260C5614A68C263036240
:1025600030BC70470000014030B4036A026A22F4B4
:10257000805202624468C26922F4E6420D6842EA6F
:10258000052223F400538D6843EA0533094DA84220
:1025900003D005F58065A84204D124F480444D6938
:1025A00044EA85144460C2614A680264036230BC34
:1025B000704700BF0000014090F83D30DBB2012BB6
:1025C00037D1022380F83D300268D36843F001031D
:1025D000D3600368194A934220D0B3F1804F1DD0D5
:1025E000A2F57C42934219D002F58062934215D045
:1025F00002F58062934211D002F5784293420DD0E9
:1026000002F57052934209D0A2F59432934205D05C
:102610001A6842F001021A60002070479A6802F0BE
:102620000702062A07D01A6842F001021A60002049
:102630007047012070470020704700BF0000014034
:102640007047704770477047704770B5044603681D
:10265000DE681D6915F0020F10D016F0020F0DD0C4
:102660006FF002021A610123037703689B6913F07C
:10267000030F5ED0FFF7E6FF0023237715F0040F6A
:1026800012D016F0040F0FD023686FF004021A6105
:102690000223237723689B6913F4407F4FD02046A1
:1026A000FFF7D0FF0023237715F0080F12D016F0A4
:1026B000080F0FD023686FF008021A6104232377F4
:1026C0002368DB6913F0030F40D02046FFF7BAFF01
:1026D0000023237715F0100F12D016F0100F0FD033
:1026E00023686FF010021A61082323772368DB69DF
:1026F00013F4407F31D02046FFF7A4FF0023237757
:1027000015F0010F02D016F0010F2DD115F0800F3A
:1027100002D016F0800F2FD115F0400F02D016F026
:10272000400F31D115F0200F02D016F0200F33D119
:1027300070BDFFF786FF2046FFF785FF9CE7204628
:10274000FFF77FFF2046FFF77EFFABE72046FFF74E
:1027500078FF2046FFF777FFBAE72046FFF771FFC3
:102760002046FFF770FFC9E723686FF001021A6186
:102770002046FDF75BFEC9E723686FF080021A610F
:10278000204600F07CF9C7E723686FF040021A6129
:102790002046FFF759FFC5E723686FF020021A6152
:1027A000204600F06BF9C3E70368344A904212D028
:1027B000B0F1804F0FD0A2F57C4290420BD002F5D1
:1027C0008062904207D002F58062904203D002F509
:1027D0007842904203D123F070034A681343274A9A
:1027E00090422AD0B0F1804F27D0A2F57C4290428F
:1027F00023D002F5806290421FD002F580629042A1
:102800001BD002F57842904217D002F570529042E8
:1028100013D002F5806290420FD002F580629042A0
:102820000BD0A2F59832904207D002F58062904218
:1028300003D002F58062904203D123F44073CA684A
:10284000134323F080034A69134303608B68C36218
:102850000B688362094B984203D003F5806398426A
:1028600001D10B69036301234361036913F0010F75
:1028700003D0036923F001030361704700000140A6
:1028800040B310B5044690F83D30F3B1022384F80C
:102890003D30214651F8040BFFF786FF012384F8F1
:1028A000463084F83E3084F83F3084F8403084F875
:1028B000413084F8423084F8433084F8443084F85E
:1028C000453084F83D30002010BD80F83C30FEF7E4
:1028D00085F9DBE70120704740B310B5044690F856
:1028E0003D30F3B1022384F83D30214651F8040B0A
:1028F000FFF75AFF012384F8463084F83E3084F80D
:102900003F3084F8403084F8413084F8423084F815
:10291000433084F8443084F8453084F83D3000205A
:1029200010BD80F83C30FFF78BFEDBE701207047DD
:1029300030B4036A026A22F01002026244688269BB
:1029400022F4E6420D6842EA052223F020038D6856
:1029500043EA0513114DA84203D005F58065A8424E
:1029600006D123F08003CD6843EA051323F040032A
:102970000A4DA84203D005F58065A84207D124F48A
:1029800040644D6944EA85048D6944EA85044460E5
:1029900082614A688263036230BC70470000014074
:1029A00038B590F83C30012B66D004460D46012323
:1029B00080F83C300C2A5AD8DFE802F00759595900
:1029C0001B5959593059595944000068FFF75CFDAB
:1029D0002268936943F0080393612268936923F0A6
:1029E000040393612268936929690B439361002072
:1029F0003EE00068FFF79CFF2268936943F40063A0
:102A000093612268936923F48063936122689369D8
:102A1000296943EA01239361002029E00068FFF758
:102A20006BFD2268D36943F00803D3612268D36940
:102A300023F00403D3612268D36929690B43D3616E
:102A4000002015E00068FFF78FFD2268D36943F48A
:102A50000063D3612268D36923F48063D361226861
:102A6000D369296943EA0123D361002000E00120F2
:102A7000002384F83C3038BD0220FCE770477047E3
:102A8000026802F10C0353E8003F23F490730C3208
:102A900042E800310029F3D1026802F1140353E83F
:102AA000003F23F00103143242E800310029F3D142
:102AB000036B012B05D0202380F8423000230363F1
:102AC0007047026802F10C0353E8003F23F0100343
:102AD0000C3242E800310029F3D1ECE790F84130A4
:102AE000DBB2212B01D0022070478368B3F5805FF1
:102AF00017D0036A5A1C02621A7803685A60C38CA2
:102B00009BB2013B9BB2C3844BB90268D36823F0EC
:102B10008003D3600268D36843F04003D360002091
:102B200070470369002BE4D1036A1B880268C3F372
:102B300008035360036A02330362E0E710B50446FA
:102B40000268136923F44053C1680B43136183681F
:102B500002691A4343691A43C3691A430168CB687F
:102B600023F4164323F00C031343CB60026853692C
:102B700023F4407381690B4353610368314A9342E4
:102B800006D002F58062934202D0FFF723F801E0FD
:102B9000FFF730F8E369B3F5004F29D0002103189F
:102BA00049411B1841F10001C90041EA5371DB00A2
:102BB000181863684FEA83024FEA937341F10001EA
:102BC000FDF7FAFB204AA2FB00314909642303FB0D
:102BD00011031B013233A2FB03235B0903F0F00254
:102BE00002EB011203F00F03216813448B6010BD48
:102BF0000023021843EB0301121841F10001C90040
:102C000041EA5271D200101841F100016268921835
:102C10005B41FDF7D1FB0C4AA2FB0031490964235B
:102C200003FB1103DB003233A2FB03235B095A00D1
:102C300002F4F87202EB011203F007032168134457
:102C40008B60D4E7001001401F85EB5160B310B5D5
:102C5000044690F8413013B3242384F841302268AD
:102C6000D36823F40053D3602046FFF767FF226840
:102C7000136923F4904313612268536923F02A03F4
:102C800053612268D36843F40053D360002060642A
:102C9000202384F8413084F84230606310BD80F80E
:102CA0004030FEF773F8D7E701207047704708B54A
:102CB0000168CA6822F04002CA60202280F84120E0
:102CC000FFF7F4FF002008BD7047704708B5806B20
:102CD0000023C385C384FFF7F8FF08BD704790F851
:102CE0004230DBB2222B69D18368B3F5805F4FD0CD
:102CF000826AB3F5805F04D0002B56D10369002BA4
:102D000053D103685B681370836A01338362C38D98
:102D10009BB2013B9BB2C385002B51D100B583B060
:102D20000268D36823F02003D3600268D36823F4D9
:102D30008073D3600268536923F001035361202339
:102D400080F8423000234363036B012B33D100230F
:102D50000363026802F10C0353E8003F23F0100301
:102D60000C3242E800310029F3D103681A6812F0EE
:102D7000100F06D0002201921A6801925B6801933D
:102D8000019B818DFFF7AAFF002003B05DF804FBD3
:102D90000269002AACD1826A03685B68C3F3080346
:102DA0001380836A02338362B1E703685B6803F0D0
:102DB0007F031370A8E7FFF787FFE5E7022070475E
:102DC0000020704710B582B0044602681368D068CE
:102DD000516913F00F0F09D113F0200F0CD010F030
:102DE000200F09D02046FFF77AFF16E011F001010D
:102DF00015D110F4907F12D1216B012979D013F0F5
:102E0000800F03D010F0800F40F0148113F0400FBA
:102E100003D010F0400F40F0118102B010BD13F04C
:102E2000010F06D010F4807F03D0626C42F00102E3
:102E3000626413F0040F04D019B1626C42F0020214
:102E4000626413F0020F04D019B1626C42F0040204
:102E5000626413F0080F07D010F0200F00D119B1F1
:102E6000626C42F008026264626C002AD5D013F0F2
:102E7000200F02D010F0200F29D123685B6903F0E6
:102E80004003626C12F0080F00D163B32046FFF7D5
:102E9000F7FD23685B6913F0400F20D0226802F130
:102EA000140353E8003F23F04003143242E800319A
:102EB0000029F3D1E36B73B1624A1A65E06BFFF747
:102EC000EDF80028A9D0E06B036D9847A5E72046F0
:102ED000FFF705FFD1E72046FFF7F7FE9DE7204605
:102EE000FFF7F3FE99E72046FFF7EFFE0023636448
:102EF00093E713F0100F82D010F0100F3FF47FAF64
:102F0000002301931368019353680193019B536954
:102F100013F0400F52D0E26B13685B689BB2002B3A
:102F20003FF47BAFA18D99427FF677AFE385D369FC
:102F3000B3F5807F37D0226802F10C0353E8003FDD
:102F400023F480730C3242E800310029F3D1226867
:102F500002F1140353E8003F23F00103143242E866
:102F600000310029F3D1226802F1140353E8003F35
:102F700023F04003143242E800310029F3D120232A
:102F800084F8423000232363226802F10C0353E8E3
:102F9000003F23F010030C3242E800310029F3D146
:102FA000E06BFFF731F802236363A18DE38D9BB2E1
:102FB000C91A89B22046FFF791FE2EE7A18DE38D55
:102FC0009BB2C91A89B2E38D9BB2002B3FF425AFA7
:102FD00000293FF422AF226802F10C0353E8003FBE
:102FE00023F490730C3242E800300028F3D12268B9
:102FF00002F1140353E8003F23F00103143242E8C6
:1030000000300028F3D1202384F8423000232363CA
:10301000226802F10C0353E8003F23F010030C3246
:1030200042E800300028F3D1022363632046FFF713
:1030300055FEF2E62046FFF751FDEEE62046FFF78B
:1030400036FEEAE6CD2C0008034AD2F8883043F475
:103050007003C2F88830704700ED00E000F108030B
:1030600043604FF0FF328260C3600361002303605E
:10307000704700230361704743684B609A688A6019
:10308000516099600861036801330360704730B490
:103090000D68B5F1FF3F11D000F108031C465B68D5
:1030A0001A68AA42FAD963684B6099608C606160C3
:1030B000086103680133036030BC70470469F2E7BC
:1030C0000369416882688A60416851605A68824237
:1030D00006D0002202611A68013A1A601868704727
:1030E00082685A60F5E710B5044601F06BFCA26BEC
:1030F000E36B9A4204D0002401F086FC204610BD08
:103100000124F9E710B5044601F05CFCA36B23B978
:10311000012401F079FC204610BD0024F9E770B5C8
:1031200004461546866B026C5AB903681BB1002031
:103130000136A66370BD806800F0EEFF0023A36037
:10314000F6E76DB94068FDF79DF86368226C13449B
:103150006360A268934219D3236863602846E7E757
:10316000C068FDF78FF8E368226C51429B1AE36058
:103170002268934202D2A3680B44E360022D01D07F
:103180000020D5E726B1013E0020D1E72846CFE751
:103190000020CDE70346026C6AB110B50846D96835
:1031A0001144D9609C68A14201D31968D960D968DB
:1031B000FDF768F810BD704738B5054601F002FC10
:1031C00095F8454064B201E0013C64B2002C0ADD90
:1031D0006B6A43B105F1240000F0E6FE0028F3D04D
:1031E00000F084FFF0E7FF2385F8453001F00CFC88
:1031F00001F0E8FB95F8444064B201E0013C64B2A0
:10320000002C0ADD2B6943B105F1100000F0CCFE63
:103210000028F3D000F06AFFF0E7FF2385F8443080
:1032200001F0F2FB38BD38B5E0B10D46044601F0BF
:10323000C9FB2368E26B216C01FB0230A060002017
:10324000A0636360013A02FB0133E360FF2384F86B
:10325000443084F84530FDB9236963B901F0D4FBEB
:10326000012038BD4FF0500383F31188BFF36F8FF7
:10327000BFF34F8FFEE704F1100000F095FE002829
:10328000ECD04FF0E0234FF08052C3F8042DBFF391
:103290004F8FBFF36F8FE1E704F11000FFF7DEFE01
:1032A00004F12400FFF7DAFED8E710B503460298D0
:1032B0000C4631B90060C36304640121FFF7B3FF1A
:1032C00010BD0260F7E740B94FF0500383F3118857
:1032D000BFF36F8FBFF34F8FFEE710B584B01C466E
:1032E000844653B192B189B94FF0500383F31188EA
:1032F000BFF36F8FBFF34F8FFEE74FF0500383F3A1
:103300001188BFF36F8FBFF34F8FFEE76AB1482379
:103310000393039B482B13D04FF0500383F3118882
:10332000BFF36F8FBFF34F8FFEE70029EFD04FF051
:10333000500383F31188BFF36F8FBFF34F8FFEE706
:10334000039B012384F8463000949DF818306046B2
:10335000FFF7ABFF204604B010BDF0B585B0019279
:1033600088B10F461D460446B1B1022D20D1E36B52
:10337000012B1DD04FF0500383F31188BFF36F8FE3
:10338000BFF34F8FFEE74FF0500383F31188BFF375
:103390006F8FBFF34F8FFEE7036C002BE5D04FF02C
:1033A000500383F31188BFF36F8FBFF34F8FFEE796
:1033B00000F0A2FE064658B9019B002B48D04FF002
:1033C000500383F31188BFF36F8FBFF34F8FFEE776
:1033D00000263DE02A4639462046FFF7A0FE636AF4
:1033E0007BB948B14FF0E0234FF08052C3F8042D71
:1033F000BFF34F8FBFF36F8F01F006FB012005B0C5
:10340000F0BD04F1240000F0CFFD0028F4D04FF00F
:10341000E0234FF08052C3F8042DBFF34F8FBFF36A
:103420006F8FE9E701F0F0FA0020E8E702A800F06A
:1034300001FE012619E0002384F8443021E0002336
:1034400084F8453023E02046FFF7B6FE00F08AFC02
:1034500001F0B8FAA26BE36B9A42BBD3022DB9D04C
:10346000019B002BDED0002EE0D001F0CDFA00F061
:10347000DFFB01F0A7FA94F8442052B2B2F1FF3F0B
:10348000D9D094F8452052B2B2F1FF3FD7D001F025
:10349000BBFA01A902A800F0D9FDD8B92046FFF770
:1034A00022FE0028CFD0019904F1100000F048FD61
:1034B0002046FFF781FE00F055FC0028C8D14FF0F0
:1034C000E0234FF08052C3F8042DBFF34F8FBFF3BA
:1034D0006F8FBDE72046FFF76FFE00F043FC002032
:1034E0008DE72DE9F84390B10F4616461C46054678
:1034F000B1B1022C20D1EB6B012B1DD04FF050034A
:1035000083F31188BFF36F8FBFF34F8FFEE74FF048
:10351000500383F31188BFF36F8FBFF34F8FFEE724
:10352000036C002BE5D04FF0500383F31188BFF3F9
:103530006F8FBFF34F8FFEE701F06AFBEFF3118847
:103540004FF0500383F31188BFF36F8FBFF34F8F9A
:10355000AA6BEB6B9A4206D3022C04D0002088F3AE
:103560001188BDE8F88395F845904FFA89F9AB6B5F
:10357000224639462846FFF7D2FDB9F1FF3F06D073
:1035800009F101035BB285F845300120E7E76B6A7A
:103590000BB90120E3E705F1240000F005FD18B1A7
:1035A00026B101203060DAE70120D8E70120D6E714
:1035B000F0B585B0019290B10F460446C1B100F05C
:1035C0009BFD064600BB019B002B5ED04FF05003D5
:1035D00083F31188BFF36F8FBFF34F8FFEE74FF078
:1035E000500383F31188BFF36F8FBFF34F8FFEE754
:1035F000036C002BE3D04FF0500383F31188BFF32B
:103600006F8FBFF34F8FFEE700263EE0394620461E
:10361000FFF7C0FD013DA563236923B901F0F4F96B
:10362000012005B0F0BD04F1100000F0BDFC002841
:10363000F4D04FF0E0234FF08052C3F8042DBFF3D5
:103640004F8FBFF36F8FE9E701F0DEF90020E8E765
:1036500002A800F0EFFC012621E0002384F84430AA
:1036600029E0002384F845302BE02046FFF7A4FD35
:1036700000F078FB09E02046FFF79EFD00F072FBAA
:103680002046FFF73FFD00283FD101F09BF9A56BD5
:10369000002DBBD1019B002BD6D0002ED8D001F03D
:1036A000B3F900F0C5FA01F08DF994F844305BB23B
:1036B000B3F1FF3FD1D094F845305BB2B3F1FF3F97
:1036C000CFD001F0A1F901A902A800F0BFFC0028A9
:1036D000D1D12046FFF716FD0028C6D0019904F18C
:1036E000240000F02DFC2046FFF766FD00F03AFBB9
:1036F0000028CAD14FF0E0234FF08052C3F8042DC8
:10370000BFF34F8FBFF36F8FBFE7002089E7000043
:103710000023072B0CD8074A52F833200AB1013393
:10372000F7E7044A42F8331002EBC30250607047D7
:10373000704700BF9C0B002070B504460D4616462E
:1037400001F040F994F844305BB2B3F1FF3F0DD083
:1037500094F845305BB2B3F1FF3F0BD001F054F960
:10376000A36B5BB12046FFF727FD70BD002384F8F3
:103770004430EDE7002384F84530EFE73246294630
:1037800004F1240000F0F4FBECE70000084B1B6898
:103790001B6823B9074B4FF0FF321A607047044B88
:1037A0001B68DB68DB685A68024B1A60704700BF11
:1037B0004C0C0020E40B00202DE9F04780460D461C
:1037C00017469946089EDDF824A00A9C9200A52180
:1037D000206BFCF7DDFC236B07F18042013A03EB21
:1037E000820727F00707B5B34FF0000CBCF10F0FAD
:1037F00009D815F80C3004EB0C0282F8343013B100
:103800000CF1010CF2E7002384F84330062E00D9B6
:103810000626E66266640025A564201DFFF729FCE4
:1038200004F11800FFF725FC2461C6F10706A66124
:103830006462E56484F8505084F852504A46414628
:10384000384601F091F82060BAF1000F01D0CAF8B3
:103850000040BDE8F087002384F83430D6E700004C
:1038600038B5002407E004EB840293000E481844A6
:10387000FFF7F4FB0134062CF5D90C4D2846FFF771
:10388000EDFB0B4C2046FFF7E9FB0A48FFF7E6FB90
:103890000948FFF7E3FB0948FFF7E0FB084B1D6011
:1038A000084B1C6038BD00BF780C0020640C002061
:1038B000500C0020340C0020200C0020080C0020AC
:1038C0004C0C0020480C002010B5044601F07AF89A
:1038D000214A136801331360204B1B685BB1204BF6
:1038E0001B686BB91D4B1B68DA6AE36A9A4207D8FA
:1038F0001A4B1C6004E0194B1C601368012B28D084
:10390000184A136801331360E06A01238340164AA2
:1039100011680B43136000EB8000211D134B03EB78
:103920008000FFF7A9FB01F06FF80D4B1B687BB11E
:103930000A4B1B68DA6AE36A9A4209D24FF0E02325
:103940004FF08052C3F8042DBFF34F8FBFF36F8F3A
:1039500010BDFFF785FFD3E7040C0020040D002005
:10396000F80B0020E80B0020FC0B0020780C002056
:1039700010B5044690F8513063B1012B11D0022BE1
:103980000ED04FF0500383F31188BFF36F8FBFF356
:103990004F8FFEE7006B00F06BFF204600F068FFE2
:1039A00010BD00F065FFFBE70F4B1B68D3B110B5EE
:1039B00001F008F80D4BDB68DC68201DFFF780FB89
:1039C0000B4A1368013B1360074A1368013B1360FD
:1039D00001F01AF82046FFF7CBFF034B1B68002BC2
:1039E000E6D110BD704700BF1C0C0020200C002049
:1039F000040C002008B5FFF7D7FF074B1B68012B0D
:103A0000F9D94FF0E0234FF08052C3F8042DBFF3F3
:103A10004F8FBFF36F8FEEE7780C002070B5044630
:103A20000D461F4B1E681F4B1A68002182F852106A
:103A300018680430FFF744FB48B91A4B1B68DB6A6F
:103A400001229A4018490B6823EA02030B60B4F183
:103A5000FF3F0DD03444134B1B685C60A64210D965
:103A6000124B18680F4B19680431FFF710FB70BD3B
:103A7000002DEFD00B4B196804310D48FFF7FCFA0D
:103A8000F5E70C4B1868074B19680431FFF7FFFA8C
:103A9000094B1B68A342EAD9074B1C60E7E700BF4C
:103AA000000C0020040D0020FC0B0020480C00201E
:103AB000080C00204C0C0020E40B002030B587B02F
:103AC0000B9C7CB10C9DB5B154250495049D542DDF
:103AD0001AD04FF0500383F31188BFF36F8FBFF3F9
:103AE0004F8FFEE74FF0500383F31188BFF36F8FC2
:103AF000BFF34F8FFEE74FF0500383F31188BFF3FE
:103B00006F8FBFF34F8FFEE7049D0C9D2C63022443
:103B100085F8514000240394029505AC01940A9C59
:103B20000094FFF749FE0C98FFF7CEFE059807B00A
:103B300030BD2DE9F04385B00746884614461E4641
:103B4000900000F013FE08B38146542000F00EFEF2
:103B50000546A8B1C0F83090002380F85130039397
:103B600002900D9B01930C9B0093334622464146E5
:103B70003846FFF721FE2846FFF7A6FE012007E0A2
:103B8000484600F075FE4FF0FF3001E04FF0FF3087
:103B900005B0BDE8F083000010B588B0002405949E
:103BA000069407AA06A905A8FCF7C6FD059B029383
:103BB000069B019300942346079A17491748FFF77D
:103BC0007DFF174B1860C0B100F06AFB012815D1CA
:103BD0004FF0500383F31188BFF36F8FBFF34F8F04
:103BE000104B4FF0FF321A600F4B01221A600F4B3F
:103BF00000221A6000F080FF03E00020B0F1FF3FD8
:103C000001D008B010BD4FF0500383F31188BFF30B
:103C10006F8FBFF34F8FFEE714500008F53900088F
:103C2000E00B0020E40B0020F80B0020000C00202B
:103C3000024A136801331360704700BFDC0B002099
:103C4000014B1868704700BF000C0020F8B53A4BD4
:103C50001B68002B69D1394B1D6801351D60C5B942
:103C6000374B1B681B6843B14FF0500383F3118837
:103C7000BFF36F8FBFF34F8FFEE7314A1168314BAF
:103C8000186810601960304A136801331360FFF739
:103C90007DFD2E4B1B68AB423DD900272C4B1B688A
:103CA000DB6A03EB83039A002A4B9B58012B00D954
:103CB0000127294B1B68002B3CD001273AE0012744
:103CC0001F4B1B681B6843B31D4B1B68DB68DC681C
:103CD00063689D4226D3261D3046FFF7F1F9A36A9B
:103CE0001BB104F11800FFF7EBF9E36A01229A40D7
:103CF0001A49086802430A6003EB83039A003146BD
:103D000014481044FFF7B8F9E26A114B1B68DB6AEC
:103D10009A42D4D2D4E70027D2E70C4B4FF0FF32BF
:103D20001A60BBE7094A1360B8E70D4A136801330C
:103D3000136000273846F8BDDC0B0020000C002083
:103D40004C0C0020480C0020EC0B0020E40B002061
:103D5000040D0020780C0020F00B0020FC0B00204C
:103D6000F40B002038B5354B1B6843B94FF05003B6
:103D700083F31188BFF36F8FBFF34F8FFEE700F01F
:103D800021FE2E4B1A68013A1A601B68002B4FD196
:103D90002B4B1B680BB900244BE00024294B1B68FC
:103DA0001BB3284BDB68DC6804F11800FFF788F9C7
:103DB000251D2846FFF784F9E06A01238340224A43
:103DC00011680B43136000EB800029461F4B03EB87
:103DD0008000FFF751F9E26A1D4B1B68DB6A9A42CB
:103DE000DCD31C4B01221A60D8E70CB1FFF7CEFCE4
:103DF000194B1C6884B9174B1C68D4B14FF0E023F1
:103E00004FF08052C3F8042DBFF34F8FBFF36F8F75
:103E100001240EE0013C07D0FFF718FF0028F9D07D
:103E20000C4B01221A60F5E70B4B00221A60E2E707
:103E3000002400F0E9FD204638BD00BFDC0B002067
:103E4000040C0020340C0020FC0B0020780C002017
:103E5000040D0020F00B0020F40B002010B5A8B1D9
:103E60000446104B1B6843B14FF0500383F3118895
:103E7000BFF36F8FBFF34F8FFEE7FFF7D9FE00212F
:103E80002046FFF7CBFDFFF76DFF48B94FF0E02369
:103E90004FF08052C3F8042DBFF34F8FBFF36F8FE5
:103EA00010BD00BFDC0B0020204B1B681BB1204B5A
:103EB00001221A6070471E4B00221A601D4B1B68BE
:103EC000B3FA83F3DBB2C3F11F0303EB83018A0070
:103ED00019498A5842B94FF0500383F31188BFF350
:103EE0006F8FBFF34F8FFEE7134803EB83018A0008
:103EF000024451684968516003EB830C4FEA8C021D
:103F000008320244914209D003EB83039A000A4B22
:103F100013445B68DA68094B1A6070474868624668
:103F20009100054A0A445060EEE700BFDC0B002018
:103F3000F00B0020FC0B0020780C0020040D00206A
:103F400058B110B50C46094A11681831FFF79FF8AF
:103F500001212046FFF762FD10BD4FF0500383F3AF
:103F60001188BFF36F8FBFF34F8FFEE7040D002062
:103F700038B570B10D4614460A4A11681831FFF77A
:103F80007BF80CB14FF0FF3521462846FFF746FD80
:103F900038BD4FF0500383F31188BFF36F8FBFF329
:103FA0004F8FFEE7040D002038B5C368DC6824B3EA
:103FB00004F118052846FFF783F8184B1B682BBB44
:103FC000251D2846FFF77CF8E06A01238340144A48
:103FD00011680B43136000EB80002946114B03EB83
:103FE0008000FFF749F8E26A0F4B1B68DB6A9A42D0
:103FF00011D901200D4B186038BD4FF0500383F3E9
:104000001188BFF36F8FBFF34F8FFEE72946084833
:10401000FFF732F8E7E70020EEE700BFDC0B0020F7
:10402000FC0B0020780C0020040D0020F00B002079
:10403000340C0020034B1B680360034B1B68436078
:10404000704700BFEC0B0020000C0020F8B5B8B1A1
:104050000C460546E9B100F0B5FC214B1A686B68C7
:10406000D01A2049096891F85210D9B11D4B1B682C
:10407000002283F85220012400F0C6FC2046F8BD3F
:104080004FF0500383F31188BFF36F8FBFF34F8F4F
:10409000FEE74FF0500383F31188BFF36F8FBFF338
:1040A0004F8FFEE72168B1F1FF3F14D00E4E366806
:1040B0002F68B74201D093420FD9814203D8002321
:1040C00023600124D8E79B1A0B4423602846FFF79E
:1040D000B1FF0024D0E70024CEE70124CCE700BFE5
:1040E000000C0020040D0020EC0B0020014B0122ED
:1040F0001A607047F00B0020054B1B6833B1054B6D
:104100001B680BB1002070470220704701207047E8
:10411000F80B0020DC0B002000284BD038B50446FB
:10412000264B1B68834208D04FF0500383F311885D
:10413000BFF36F8FBFF34F8FFEE7836C43B94FF030
:10414000500383F31188BFF36F8FBFF34F8FFEE7E8
:10415000013B8364C16A426C91422DD00BB10020B7
:1041600038BD051D2846FEF7ABFF68B9E36A03EBCF
:104170008302920012498A5832B901229A401149A9
:104180000B6823EA02030B60606CE062C0F1070376
:10419000A361012404FA00F30A4A11680B43136077
:1041A00000EB80002946064B03EB8000FEF764FF1E
:1041B0002046D5E7002070470020D1E7040D0020FD
:1041C000780C0020FC0B0020064B1A6813682BB9F2
:1041D0000123036023B9D368186870470023F8E708
:1041E00000207047000E002008B541600061914238
:1041F0000CD8D21A83699A4201D3012008BD011D4F
:10420000094B1868FEF743FF0020F7E79A4201D2F6
:10421000994206D2011D054B1868FEF738FF0020B1
:10422000ECE70120EAE700BFFC0D0020000E0020B3
:1042300030B583B000F0C6FB114B1B681BB100F01A
:10424000E3FB03B030BD0F4D2846FEF707FF0E4CD1
:104250002046FEF703FF0D4B1D600D4B1C60002335
:1042600000930C4B0C4A10210A20FFF72CF8044B4A
:1042700018600028E3D00949FFF74AFADFE700BFDA
:10428000F80D0020180E0020040E0020000E002063
:10429000FC0D0020080D0020500D00201C500008CF
:1042A00010B588B0FFF7C4FF124B1B68CBB10024D8
:1042B0000594069407AA06A905A8FCF749FA059BE8
:1042C0000293069B0193022300932346079A0A490F
:1042D0000A48FFF7F3FB0A4B186010B1012008B041
:1042E00010BD4FF0500383F31188BFF36F8FBFF3FE
:1042F0004F8FFEE7F80D0020245000080546000807
:10430000F40D0020B8B19C4603461848006858B325
:1043100000B585B000910192029305291CDCFFF7DE
:10432000EBFE022810D000231A4669460F480068A9
:10433000FFF713F815E04FF0500383F31188BFF334
:104340006F8FBFF34F8FFEE70023069A6946074839
:104350000068FFF702F804E0002362466946FFF7B1
:10436000C0F805B05DF804FB00207047F80D002090
:1043700070B582B01B4B1B681A6862B3DB681E689D
:10438000DC68251D2846FEF79BFE236A20469847D9
:1043900094F8243013F0040FECD0A36933449E4208
:1043A00007D26360246129460E4B1868FEF76FFE42
:1043B000E0E7002100910B4632462046FFF7A2FFBE
:1043C0000028D7D14FF0500383F31188BFF36F8FCC
:1043D000BFF34F8FFEE7044A10680249086013607C
:1043E00002B070BD000E0020FC0D002038B505465F
:1043F000FFF726FC0446074B1B68834205D80023C1
:104400002B60044B1C60204638BDFFF7B1FF012331
:104410002B60F6E7F00D002070B582B006460D4621
:1044200017490968C968CC68201DFEF749FE94F851
:1044300024C01CF0040F08D12CF0010C84F824C017
:10444000236A2046984702B070BDA16933462A46C8
:1044500031442046FFF7C8FE0028F1D0002100912A
:104460000B4632462046FFF74DFF0028E8D14FF0BB
:10447000500383F31188BFF36F8FBFF34F8FFEE7B5
:10448000000E002070B582B006460C46FFF7D0FB48
:1044900001A8FFF7ABFF019B33BB0546E4B9B0426F
:1044A00013D22246711B124B1868FFF745F9FFF72C
:1044B00059FCD8B94FF0E0234FF08052C3F8042DD7
:1044C000BFF34F8FBFF36F8F10E0FFF74BFC294610
:1044D0003046FFF7A1FF09E0064A126812680AB9E0
:1044E0000124DEE71C46DCE7FFF73CFC02B070BDB0
:1044F000F80D0020FC0D002010B588B002E0049BF0
:10450000002B0FDA002204A93D4B1868FFF750F882
:10451000002873D0049B002BF1DA07990698059BBD
:104520009847ECE7069C636913B1201DFEF7C8FDB0
:1045300003A8FFF75BFF049B092BE3D8DFE803F038
:104540000505053037500505303794F8243043F021
:10455000010384F82430059BA169024619442046D2
:10456000FFF742FE0028CDD0236A2046984794F8F2
:10457000243013F0040FC5D0A269002100910B462E
:10458000059802442046FFF7BDFE0028BAD14FF03F
:10459000500383F31188BFF36F8FBFF34F8FFEE794
:1045A00094F8243023F0010384F82430AAE794F827
:1045B000243043F0010384F824300599A16131B11E
:1045C0000346024601442046FFF70EFE9AE74FF0ED
:1045D000500383F31188BFF36F8FBFF34F8FFEE754
:1045E00094F8243013F0020F04D023F0010384F870
:1045F000243087E7204600F03BF983E708B010BD80
:10460000F80D002000B583B001A8FFF7DDFD01998A
:10461000FFF738FFFFF770FFF6E7842801D003307B
:1046200070470020704708B5FFF7B6FA002008BDB4
:104630002DE9F04387B00E464469C4B18569B5B130
:104640004768D0F80080D0F81090B0F90800FFF764
:10465000E4FF02950194009033464A4641463846AD
:10466000FFF72CFA0590059807B0BDE8F083446881
:1046700005680769B0F90800FFF7CFFF05AB0193A4
:1046800000903346BAB229462046FFF752FA012875
:10469000E9D00020E8E708B500B90120FFF7DEFB0C
:1046A000002008BD124A12F0070F1ED0D11D21F0C4
:1046B0000701C1F5C04313440A460E4802600021B9
:1046C00041601344083B23F007030B480360596023
:1046D0001960991A51601360084B1960084B1960F2
:1046E000084B4FF000421A6070474FF4C043E4E7B4
:1046F0004C0E0020440E0020400E0020380E0020FA
:104700003C0E00202C0E0020164B1A461B688342DC
:10471000FBD3516802EB010C844509D0416800EBE2
:10472000010C634509D00360904219D010607047B6
:104730004068014451601046F0E710B40A4C246808
:10474000A3420BD05B681944416013681B68036087
:10475000904200D010605DF8044B70470460F7E7AA
:10476000704700BF440E0020400E002038B50446BC
:10477000FFF75EFA384B1B68B3B1384B1B681C421D
:1047800050D1002C50D004F1080214F0070F02D0D1
:1047900022F007020832002A55D0314B1B689342A1
:1047A00053D330490C6804E0FFF77CFFE5E721466E
:1047B0001C466368934202D22368002BF7D1264B34
:1047C0001B68A34243D00D68083523680B606368FB
:1047D0009B1A102B10D9A01810F0070F08D04FF01B
:1047E000500383F31188BFF36F8FBFF34F8FFEE742
:1047F00043606260FFF788FF626819490B689B1A83
:104800000B60194909688B4201D217490B60134BA1
:104810001B681343636000232360144A1368013349
:10482000136002E0002500E00025FFF79BFA15F079
:10483000070F0ED04FF0500383F31188BFF36F8F33
:10484000BFF34F8FFEE70025EFE70025EDE70025DA
:10485000EBE7284638BD00BF400E00202C0E00209C
:104860003C0E0020440E0020380E0020340E0020A4
:10487000002834D038B50446A0F1080550F8043CAF
:10488000174A1268134208D14FF0500383F311887E
:10489000BFF36F8FBFF34F8FFEE750F8081C41B195
:1048A0004FF0500383F31188BFF36F8FBFF34F8F27
:1048B000FEE723EA020340F8043CFFF7B9F954F895
:1048C000041C084A13680B4413602846FFF71CFFBA
:1048D000054A136801331360FFF744FA38BD704787
:1048E0002C0E00203C0E0020300E002082B0002351
:1048F00001930D4B1B68B3F1FF3F08D04FF05003FD
:1049000083F31188BFF36F8FBFF34F8FFEE74FF034
:10491000500383F31188BFF36F8FBFF34F8F019B59
:10492000002BFCD002B070470C0000200848006843
:10493000006880F308884FF0000080F3148862B6A6
:1049400061B6BFF34F8FBFF36F8F00DF00BF000072
:1049500008ED00E0DFF80C00016841F4700101602F
:104960007047000088ED00E04FF0807340F8043C91
:1049700021F0010140F8081C054B40F80C3C40F8C0
:10498000202C6FF0020340F8243C4438704700BFED
:10499000ED480008000000000000000000000000DA
:1049A000074B19680868B0E8F04F80F30988BFF337
:1049B0006F8F4FF0000080F311887047AFF30080D5
:1049C000040D00204FF0500383F31188BFF36F8F65
:1049D000BFF34F8F0B4A136801331360012B00D0D4
:1049E00070474FF0E023D3F8043D13F0FF0FF7D0EA
:1049F0004FF0500383F31188BFF36F8FBFF34F8FD6
:104A0000FEE700BF0C000020094B1B6843B94FF0C4
:104A1000500383F31188BFF36F8FBFF34F8FFEE70F
:104A2000013B034A13600BB983F31188704700BF41
:104A30000C0000200000000000000000000000004A
:104A4000EFF30980BFF36F8F154B1A681EF0100F3C
:104A500008BF20ED108A20E9F04F10602DE9090011
:104A60004FF0500080F31188BFF34F8FBFF36F8F6B
:104A7000FFF71AFA4FF0000080F3118809BC19689B
:104A80000868B0E8F04F1EF0100F08BFB0EC108AB5
:104A900080F30988BFF36F8F704700BFAFF30080CA
:104AA000040D002008B54FF0500383F31188BFF3C5
:104AB0006F8FBFF34F8FFFF7C9F828B14FF0E02396
:104AC0004FF08052C3F8042D002383F3118808BDF2
:104AD0004FF0E022002313619361054B1B680549E9
:104AE000A1FB03139B09013B53610723136170472B
:104AF00008000020D34D62104FF0E023D3F8002DC2
:104B00003D4B9A421CD04FF0E023D3F8002D3B4B95
:104B10009A421ED030B583B0394B1A78D2B2019286
:104B2000FF221A701B78DBB28DF803309DF803303A
:104B300003F05003334A1370334B07221A601BE013
:104B40004FF0500383F31188BFF36F8FBFF34F8F84
:104B5000FEE74FF0500383F31188BFF36F8FBFF36D
:104B60004F8FFEE7284A1368013B13609DF803301E
:104B70005B00DBB28DF803309DF8033013F0800F3B
:104B8000F0D1214B1B68032B08D04FF0500383F367
:104B90001188BFF36F8FBFF34F8FFEE71B021A4AD6
:104BA000136003F4E0631360019BDBB2144A1370DB
:104BB0004FF0E024D4F8203D43F47003C4F8203DC6
:104BC000D4F8203D43F07043C4F8203DFFF780FF48
:104BD00000250E4B1D60FFF7BDFED4F8343F43F0B7
:104BE0004043C4F8343FFFF7A1FEFFF75DF9FFF73C
:104BF0007DFE284603B030BD71C20F4170C20F4127
:104C000000E400E0506E00204C6E00200C000020FC
:104C1000EFF305830F2B0FD9114A9B5CDBB2114ACE
:104C200012789A4208D94FF0500383F31188BFF3EA
:104C30006F8FBFF34F8FFEE74FF0E023D3F80C3DAB
:104C400003F4E063084A1268934208D94FF0500316
:104C500083F31188BFF36F8FBFF34F8FFEE7704769
:104C6000F0E300E0506E00204C6E0020DFF834D0FE
:104C7000FEF7EAF90C480D490D4A002302E0D4582A
:104C8000C4500433C4188C42F9D30A4A0A4C002396
:104C900001E013600432A242FBD3FBF7CBFAFBF72F
:104CA00025FC7047000002200000002010000020BA
:104CB0005C50000810000020546E0020FEE72DE933
:104CC000F04786468C460846089E154674461946A7
:104CD000002B40F0C2808542B2FA82F245D94AB137
:104CE000C2F1200300FA02FC2EFA03F3954043EAD6
:104CF0000C0C94404FEA154EA8B2BCFBFEF8230CF6
:104D00000EFB18CC08FB00F943EA0C43994528D95F
:104D1000EB1808F1FF3704D2994502D9A8F1020730
:104D20002B44A3EB0903A4B2B3FBFEFC0EFB1C3324
:104D30000CFB00F044EA0344A04214D92C190CF1F6
:104D4000FF3304D2A04202D9ACF102032C44241A4E
:104D500043EA07401EB1D440002334607360BDE8CD
:104D6000F0874746DDE76346F1E792BB431B01212D
:104D70004FEA154EAFB2B3FBFEFC200C0EFB1C330A
:104D80000CFB07F840EA0343984562D9EB180CF195
:104D9000FF3004D2984502D9ACF102002B44A3EBBA
:104DA0000803A4B2B3FBFEFC0EFB1C330CFB07F79D
:104DB00044EA0344A7424ED92C190CF1FF3304D224
:104DC000A74202D9ACF102032C44E41B43EA0040A1
:104DD000C0E7C2F1200320FA03F1954090402EFA7B
:104DE00003F303434FEA154EAFB2B1FBFEFC0EFBDB
:104DF0001C10190C0CFB07F841EA0041884504FA25
:104E000002F422D969180CF1FF3004D2884502D986
:104E1000ACF102002944A1EB08019BB2B1FBFEFCFE
:104E20000EFB1C110CFB07F743EA01439F420ED90E
:104E3000EB180CF1FF3104D29F4202D9ACF1020110
:104E40002B44DB1B41EA004192E76046E3E7614601
:104E5000F7E76046A3E76346B7E7834206D916B98A
:104E6000002108467BE7C6E900E0F9E7B3FA83F7DB
:104E70008FB9834201D3724508D8BEEB020460EBC0
:104E8000030301209C461EB9002168E73846FAE773
:104E9000C6E9004CF8E7C7F1200CBB4022FA0CF43D
:104EA0001C432EFA0CF120FA0CF3B84001434FEAF0
:104EB00014490EFA07F5B3FBF9F81FFA84FE09FB53
:104EC00018300B0C08FB0EFA43EA00439A4502FA2D
:104ED00007F240D9E31808F1FF3004D29A4502D90D
:104EE000A8F102002344A3EB0A0389B2B3FBF9F84B
:104EF00009FB183308FB0EFE41EA03418E452CD90D
:104F0000611808F1FF3304D28E4502D9A8F10203DB
:104F1000214443EA0040A0FB0298A1EB0E01414569
:104F2000CE46434602D306D14D4504D2B9EB020E1C
:104F300068EB04030138002EA6D0B5EB0E0261EB3E
:104F4000030101FA0CFC22FA07F34CEA0303F940CF
:104F5000C6E9003198E74046C5E74346D9E7000077
:104F6000F8B500BFF8BC08BC9E467047F8B500BF56
:084F7000F8BC08BC9E46704726
:104F780008500008110700080000000000000000A9
:104F88008000000000000000000000000050000841
:104F98001B070008010000000000000000040000DA
:104FA8000000000000000000F44F0008250700087A
:104FB8000000000000000000800000000000000069
:104FC80000000000E84F00082F070008020000005A
:104FD80000000000000400000000000000000000C5
:104FE800436F6E74726F6C5461736B0044657465C3
:104FF80063745461736B0000494E535461736B00C2
:1050080047696D62616C5461736B000049444C459B
:1050180000000000546D725100000000546D7220B1
:1050280053766300000610160006101600000000F4
:105038000102030400000000000000000102030454
:045048000607080946
:08504C0038B2FF7F01000000F3
:04505400110400083B
:04505800ED0300085C
:10505C0001000000100000000024F400AAAAAAAA73
:0400000508004C6D36
:00000001FF
